:020000040000FA
:1000000090030010A1010000A9010000AB01000055
:10001000AD010000AF010000B101000000000000D0
:10002000000000000000000000000000B30100001C
:10003000B501000000000000B7010000B901000098
:10004000BB010000BB010000BB010000BB010000C0
:10005000BB010000BB010000BB010000BB010000B0
:10006000BB010000BB010000BB010000BB010000A0
:10007000BB010000BB010000BB010000BB01000090
:10008000BB010000BB010000BB010000BB01000080
:10009000BB010000BB010000BB010000BB01000070
:1000A000BB010000BB010000BB010000BB01000060
:1000B000BB010000BB010000BB010000BB01000050
:1000C000BB010000BB010000BB01000000F002F812
:1000D00000F03CF80AA090E8000C82448344AAF1A6
:1000E0000107DA4501D100F031F8AFF2090EBAE8A4
:1000F0000F0013F0010F18BFFB1A43F0010318475C
:100100002C0700004C070000103A24BF78C878C1C3
:10011000FAD8520724BF30C830C144BF04680C600D
:10012000704700000023002400250026103A28BF55
:1001300078C1FBD8520728BF30C148BF0B60704759
:100140001FB500F044FB1FBD10B510BD00F048FB0B
:100150001146FFF7F5FF00F033F900F0B9F803B4EA
:10016000FFF7F2FF03BC00F0BDF800000B49D1F827
:1001700000C04A685CF8043B1068184442F8040B5D
:100180008C4528BFA1F1DC0C8A4228BFA1F1DC021A
:10019000C1F800C04A6020F0004070472401001000
:1001A0000948804709480047FEE7FEE7FEE7FEE70B
:1001B000FEE7FEE7FEE7FEE7FEE7FEE70448054947
:1001C000034A054B7047000035060000CD000000D3
:1001D00090010010900300109001001053EA020CEF
:1001E00000F069802DE9F04B4FF00006002B1FBF97
:1001F000B3FA83F503FA05F424FA05F65E4012BF5C
:100200001643B2FA82F502FA05F4C5F120051EBFC5
:1002100022FA05FC44EA0C04203556EA044C4FEA65
:10022000144418BF641C4FF000084FF000099042BE
:1002300071EB030C39D3002919BFB1FA81F701FA28
:1002400007F6B0FA80F700FA07F6C7F120071EBFDD
:1002500020FA07FC46EA0C062037B6FBF4FCA7EBB5
:100260000507103F07F01F0BCBF120060CFA0BFB24
:100270002CFA06F644BFB3460026202FA4BF5E46E4
:100280004FF0000B5BEA060C08BF4FF0010B19EBB7
:100290000B09ABFB027C48EB0608C01B06FB02CC3B
:1002A0000BFB03CC71EB0C01C1E70B460246414648
:1002B0004846BDE8F08B13B54FF000004FF0000149
:1002C000AFF30080BDE81C4070477047704770472F
:1002D0000446AFF300802046FFF741FF0048704717
:1002E0002C01001001491820ABBEFEE726000200D9
:1002F000704700000000000000000000FFFFFFFF4B
:10030000002100E0491C8142FCD3704700B55448ED
:100310000068544948615448007818B94FF00060AB
:10032000C86103E04FF000604E4988614FF0805093
:100330004C4988611920FFF7E3FF4FF0805049498D
:10034000C8614A48FFF7DCFF00BD00B546480078A9
:10035000012801D100200AE045480068302803D078
:1003600043480068202801D1012000E000204149D5
:1003700008703F48007800F0F000394908600846EE
:100380000088C0040860FFF7C1FF3A48007858B9F8
:100390003748007800F00F003149086008460088AF
:1003A000C0050860FFF7B2FF00BD10B5FFF7DEFE25
:1003B000062190FBF1F201FB12002F49086010BDED
:1003C00000F038F900F062F84FF0FC502549086061
:1003D000002025490870284908600DE02748264973
:1003E000096850F8210022490860FFF7AEFF224853
:1003F0000068401C204908601F4800680928EDD3A8
:100400002DE01848406910F4001F02D101201C495A
:1004100008601B480068012821D11448FFF770FFCD
:100420000020114908701548C06911490860FFF79C
:100430008CFF01200C490870FFF7B7FF0E490860D8
:1004400010480968084440780F4908700846007849
:1004500007490860FFF779FF002009490860D0E7E5
:100460000400001000C0092008000010E093040000
:1004700000000010090000103400001010000010EF
:100480003C0000100A000010400000102DE9F04769
:10049000B1480068C0F3016003287CD1AF48006810
:1004A00010F0030006D0012833D002285FD00328C3
:1004B0002ED100E000BFA8480068C0F3074000F15B
:1004C00001044FF00201A648D0F88800C0F30E00E6
:1004D00000F10100A1FB0001A24B4FF0000CA0FBBA
:1004E000037901FB039100FB0C1122466346384659
:1004F000FFF774FE05469C480068C0B200F1010495
:1005000022464FF000032846FFF768FE974908602F
:100510005DE091480068C0F3074000F101044FF02E
:1005200002018F48D0F88800C0F30E0000F10100EE
:10053000A1FB00108E4A4FF0000CA1FB027900FBDA
:10054000029001FB0C01224663463846FFF746FE47
:10055000054685480068C0B200F1010422464FF00C
:1005600000032846FFF73AFE804908602FE07A48EA
:100570000068C0F3074000F101044FF00201784821
:10058000D0F88800C0F30E0000F10100A1FB0012BA
:100590004FF4004000E01BE04FF00003A1FB0079A6
:1005A00002FB009001FB030122463846FFF716FECE
:1005B00005466D480068C0B200F1010422464FF0C4
:1005C00000032846FFF70AFE6849086000BF2FE0D5
:1005D0006248006810F0030006D0012810D00228FD
:1005E00019D0032823D100E000BF5F480068C0B2E3
:1005F00000F101005B49B1FBF0F05C49086016E0D6
:1006000059480068C0B200F101005949B1FBF0F04F
:10061000564908600BE054480068C0B200F1010080
:100620004FF40041B1FBF0F05049086000BF00BF3B
:10063000BDE8F08720204F4908604948D0F8A00164
:1006400010F0200F05D000BF4A48006810F0400F9E
:10065000FAD00320444908604FF000004049C1F837
:10066000A801454908604FF001003C490860434833
:10067000434908604FF0AA00424908604FF0550016
:1006800008604FF00100404908604FF0AA003D4962
:1006900008604FF055003249C1F88C0000BF2E4869
:1006A000006810F0806FFAD00320374908604FF0DF
:1006B000AA002B49C1F88C004FF055003149086061
:1006C00000BF2548006800F04070B0F1407FF8D1CD
:1006D00023202E4908604FF0AA002149C1F8AC0040
:1006E0004FF055002A4908604FF001002949086081
:1006F0004FF0AA00264908604FF055001849C1F88C
:10070000AC0000BF2448006810F4806FFAD00320CA
:10071000204908604FF0AA001149C1F8AC004FF021
:1007200055001B49086000BF1B48006800F440707A
:10073000B0F5407FF8D11948194908604FF0000022
:100740000749C1F8C8010846006820F4704040F429
:10075000804008607047000088C00F400CC10F4007
:1007600000C00F4000093D0004C10F4044000010CC
:10077000001BB700A0C10F40ACC10F4063000500D3
:1007800084C00F408CC00F4080C00F40A4C00F40F9
:10079000ACC00F40A0C00F40A8C00F40DE872804A7
:1007A000C4C00F400B4910B5A1F17C020A4CC2E94C
:1007B0003712372106E000EB104342F82130074B97
:1007C00000FB03400B1EA1F10101F4DC10BD012070
:1007D000E8E70000C4000010E119D666CD0D010065
:1007E0007546FFF77BFDAE4605006946534620F08F
:1007F0000700854618B020B5FFF7E0FCBDE82040B3
:100800004FF000064FF000074FF000084FF0000BCC
:1008100021F00701AC46ACE8C009ACE8C009ACE87F
:10082000C009ACE8C0098D46704700004C080000C4
:1008300000000010480000000801000094080000BB
:1008400048000010480300002401000000000000E0
:100850000000000000003132333435363000000033
:1008600030000000300000002000000028000000E0
:100870000C000000060000000100000080000000E5
:100880000000000000000000000000000000000068
:0408900000E1F50589
:04000005000001A155
:00000001FF
